:020000040800F2
:10000000000C0020C501000819280008F52300088D
:1000100015280008D90500080D330008000000006D
:100020000000000000000000000000006132000835
:1000300005070008000000001D280008053300081F
:10004000DF010008DF010008DF010008DF01000810
:10005000DF010008DF010008DF010008DF01000800
:10006000DF010008DF010008DF010008DF010008F0
:10007000DF010008DF010008DF010008DF010008E0
:10008000DF010008DF010008DF010008DF010008D0
:10009000DF010008DF010008DF010008DF010008C0
:1000A000DF010008DF010008DF010008DF010008B0
:1000B000DF010008DF010008DF010008DF010008A0
:1000C000DF010008DF010008DF010008DF01000890
:1000D000DF010008DF010008DF010008DF01000880
:1000E000DF010008DF010008DF01000800F002F86E
:1000F00000F058F814A696E8000CB244B344DA4570
:1001000001D100F04FF8BAE80F000FA696E83000D2
:10011000A5EB040504EB0607AAEB0704A7F101070A
:100120004FEA15154FEA3414A4F10104AC4201D38F
:1001300000F038F813F0010F18BFFB1A43F0010369
:1001400000F001F8DBE71847A0400000C0400000C5
:10015000103A24BF78C878C1FAD8520724BF30C8F3
:1001600030C144BF04680C60704700007047000055
:100170000023002400250026103A28BF78C1FBD8B0
:10018000520728BF30C148BF0B607047642900F098
:100190008180752900F07E80002070471FB51FBD4B
:1001A00010B510BD00F05BF91146FFF7F7FF03F043
:1001B000AFF800F079F903B4FFF7F2FF03BC00F0E9
:1001C00081F900000948804709480047FEE7FEE73B
:1001D000FEE7FEE7FEE7FEE7FEE7FEE7FEE7FEE7F7
:1001E00004480549054A064B7047000009330008DA
:1001F000ED00000800060020000C00200008002090
:10020000000800200FB41CB5074B06AA7B446946C2
:100210000090059800F00BF90020694600F01AF9EB
:100220001CBC5DF814FB0000450200002DE9F04104
:100230000E460446002020622046E168884730B31D
:10024000252805D0D4E901219047206A401CF2E717
:10025000E168204600278847050018D0A5F1410035
:10026000192802D820354FF4006732462946204627
:100270002760FFF78BFF40B1012804D0F61D26F060
:1002800007060836D8E7361DD6E72846DAE7206A9B
:10029000BDE8F0812DE9F04106460024106875297B
:1002A000314616A510D0AFF30080002802DA404294
:1002B00013A507E031688A0701D512A502E04907B6
:1002C00004D511A5012401E0AFF3008000210A222A
:1002D00006F1240709E0B0FBF2FCB0FBF2F302FBED
:1002E0001C00303078541846491C0028F3D12346AE
:1002F0002A463046BDE8F04100F03AB80000000060
:100300002D0000002B0000002000000002F0FF0381
:1003100043EA032242EA024200F002B84FF0000230
:1003200000B5134694469646203922BFA0E80C50EB
:10033000A0E80C50B1F12001BFF4F7AF090728BFC6
:10034000A0E80C5048BF0CC05DF804EB890028BF42
:1003500040F8042B08BF704748BF20F8022B11F06B
:10036000804F18BF00F8012B7047704770477047E7
:100370002DE9F0470D4699469246044600F12408BF
:100380000168880604D5E06921F01001216000E0D1
:100390000120A84201DD471B00E00027A1697A196E
:1003A00002EB0900081AA0612078C00602D420469A
:1003B000AFF30080002608E0D4E901211AF8060016
:1003C0009047206A401C761C20624E45F4DB207862
:1003D000C0060AD52046AFF3008006E0D4E901212B
:1003E00030209047206A401C2062381EA7F1010788
:1003F000F4DC07E0D4E9012118F805009047206AF1
:10040000401C2062281EA5F10105F3DC2046AFF355
:1004100000802078000602D50220BDE8F087012088
:10042000FBE7000001694A1C02610878704700B5CB
:100430008FB0CDE901310021059105497944CDE91D
:10044000031011466846FFF7F1FE0FB000BD000033
:10045000E5FFFFFF0A6802F8010B0A607047754666
:1004600000F02CF8AE4605006946534620F0070020
:10047000854618B020B5FFF7B3FEBDE820404FF029
:1004800000064FF000074FF000084FF0000BAC469D
:10049000ACE8C009ACE8C009ACE8C009ACE8C009E8
:1004A00021F007018D46704710B50446AFF3008078
:1004B0002046BDE81040FFF77EBE000000487047B0
:1004C0001000002001491820ABBEFEE72600020004
:1004D00070470000B0B5044600688168C90709D0BC
:1004E000816821F00101816000F028FE216889689F
:1004F000C90701D10020B0BD054602E08068C007F1
:10050000F8D000F01BFE411B20680329F6D3816858
:10051000C907F3D0A06A40F01000A062E06A40F082
:100520000100E0620120B0BDB0B582B004460020F9
:10053000019021688A68D2074BD1886840F0010099
:10054000886040F20800C2F2000000684DF6836146
:10055000C4F21B31A0FB0101880C01900198A0B1ED
:10056000019801380190019878B101980138019003
:10057000019850B1019801380190019828B1019873
:100580000138019001980028EAD100F0D7FD2168D8
:100590008968C9071CD1054603E000BF8068C00711
:1005A00016D100F0CBFD411B20680329F6D38168EA
:1005B000C907F3D1A06A40F01000A062E06A40F0E1
:1005C0000100E062002084F82400012002B0B0BDE8
:1005D000002002B0B0BD0000FEE7000040F274034E
:1005E000C2F200031980C3E9010270472DE9F0410E
:1005F00084B040F274050026C2F200050446C0E94A
:10060000006628886946009001200190022003902E
:100610006868A660029600F07DFC68682988002260
:1006200000F086FD122000F061FC68682988012234
:1006300000F07EFDA86801684E6201F059FCA868D0
:10064000016800BF4A6A1D2A08D84A6A1D2A05D8CF
:100650004A6A1D2A02D84A6A1E2AF3D301F07CFC9A
:1006600028880021CDE9000168680391029169465C
:1006700000F050FC41F289366868298800F052FD8C
:1006800030B1013EF8D10020207204B0BDE8F08105
:1006900041F289366868298800F044FD30B9013E8E
:1006A000F8D10020207204B0BDE8F08141F2893613
:1006B0006868298800F036FD30B1013EF8D100208D
:1006C000207204B0BDE8F08102F0AAF8804602F082
:1006D000A7F8074602F0A4F8064602F0A1F805467E
:1006E00002F09EF807EB080131442944C9B2814267
:1006F00006BFC4E9006801200020207204B0BDE8F4
:10070000F08100007047000070B582B00446002000
:10071000019094F82400012802D1022002B070BD9B
:10072000012084F824002046FFF7D4FE2046FFF77E
:10073000FBFE28B1002184F8241002B070BD00BF78
:100740000646A06A41F2021188430230A06240F2DC
:100750000800C2F200000568022000F06FFFB5FB40
:10076000F0F0400001900198A8B100BF0198013855
:100770000190019878B1019801380190019850B129
:10078000019801380190019828B101980138019031
:1007900001980028EAD12068816841F00801816051
:1007A00000F0CCFC21688A6812070FD4886840F0FA
:1007B0000400886000F0C2FC21688968490715D4EC
:1007C00001216FF00302304622E000BF054602E03F
:1007D00088680007EAD500F0B1FC401B21680B28AF
:1007E000F6D388680007F3D50EE000BF054602E0A7
:1007F00080684007E4D500F0A1FC411B20680B296C
:10080000F6D381684907F3D5012010216FF0120259
:10081000A36A1A401143A162002184F8241002B097
:1008200070BD000070B581B00022009290F82420C5
:10083000012A03D10221084601B070BD4A68012394
:10084000062A02EB820E80F8243007D8D0F800C0C8
:100850006FF004030CF134060CE000BFD0F800C0C8
:100860000C2A87BF0CF12C066FF040030CF1300608
:100870006FF022030EEB03021F23346803FA02F524
:100880000B6824EA050503FA02F22A433260092BB9
:1008900003EB43021AD9DCF80C601E3A072589687D
:1008A0009540AE43914023F001023143102ACCF829
:1008B0000C1015D142F20041C4F201018C4517D051
:1008C000816A41F02001816201210AE0DCF81030E8
:1008D000072689689640B34391401943CCF810101D
:1008E0000021002280F82420084601B070BD00BF1E
:1008F00089680902F4D4DCF80810102B41F40001D7
:10090000CCF80810ECD140F20801C2F200010968ED
:100910004DF68362C4F21B32A1FB0212910C01EB73
:1009200081014900009100990029D9D0009901392D
:10093000009100990029D3D00099013900910099C4
:100940000029CDD000990139009100990029C7D024
:10095000009901390091009900294FF00001E5D17B
:10096000BFE700000068C06C70470000002804BFAB
:1009700001207047B0B50446806A28B121688868B4
:10098000C0070CD115E000BF0020E06284F824000D
:10099000204600F097F821688868C00709D0886869
:1009A00020F00100886000F0C9FB21688A68D20746
:1009B00026D1A06AC0063AD4A06A41F2021290433E
:1009C0000230A062E069D4E9013240EA030C531E10
:1009D000B3FA83F35D091346B2F5807F18BF2B028B
:1009E000207D257B01284CEA45002CD135B3A56A32
:1009F00045F02005A562E56A45F00105E56222E0C3
:100A0000054602E08868C007D3D000F097FB401B82
:100A100021680328F6D38868C007F3D0A06A40F0A5
:100A20001000A062E06A40F00100E062A06AA06AE3
:100A300040F01000A0620120B0BD00BFA56903EB2B
:100A40004533A3F5C0534D68B2F5807F25F4694561
:100A500043EA05034B608B684FF2FD75CFF6E175F5
:100A600003EA050343EA00038B6001D0012A07D1A2
:100A700022690023CFF6F07303EB025201E000BFBE
:100A80000022CB6A23F470031A43CA62896840F6D5
:100A9000FE62CFF61F721140814207D10020E06252
:100AA000A16A012262F30101A162B0BDA06A40F017
:100AB000100020F00200A062E06A40F00100E06255
:100AC0000120B0BD80B586B0014640F60000C4F2FA
:100AD0000100096800F5E05291424FF00001CDE9B4
:100AE0000411CDE9021101D006B080BD41F2180118
:100AF000C4F202010A6842F400720A600A6802F451
:100B000000720192019A0A6842F004020A600968C0
:100B100001F0040101910199012102910321039146
:100B200002A900F0F7F906B080BD00002DE9F04100
:100B300082B000270D460446019700F0FFFA2168B5
:100B40008A68D20544D406464868C00503D4C86AFA
:100B500010F4700F46D040F20800C2F2000007689F
:100B600042F292480220C1F2492800F067FD216854
:100B700044F624130A69B7FBF0F0C2F292431A421A
:100B800006D1CA6844F62413C0F292031A425BD01D
:100B90000A6912EA080F07D1CA6842F29243C0F20A
:100BA00049031A4200F0C0800A6949F24923C0F2A1
:100BB00024031A424FF0FC0254D1CF681F4208BFF1
:100BC0005422019B02FB00F7BB4250D3C3E000BF9D
:100BD000A06A40F02000A06284F82470012002B0D6
:100BE000BDE8F0810868800700F1B580681C00F05E
:100BF000A880FDB90868800770D50868800700F1F3
:100C0000AA800868800769D50868800700F1A3807A
:100C10000868800762D50868800700F19C80086832
:100C200080075BD508688007E4D594E008688007F2
:100C300000F1918000F082FA801B2168A842F5D96A
:100C400008688007F2D449E00A6912EA080F4FF0F9
:100C5000290207D1CB6842F29247C0F249073B42D2
:100C600008BF1422019B02FB00F7BB4273D2681C31
:100C700052D05DBB0198B84230D301980130019049
:100C80000198B84267D20198B84227D30198013041
:100C900001900198B8425ED20198B8421ED30198E3
:100CA000013001900198B84255D20198B84215D34D
:100CB0000198013001900198B842DBD34BE000BFAE
:100CC0000198013001900198B84235D200F036FA0F
:100CD000801BA842F4D90198B842F1D2A06A40F032
:100CE0000400A062002084F82400032002B0BDE8C4
:100CF000F08100BF0198013001900198B8422AD2DA
:100D00000198013001900198B84224D20198013035
:100D100001900198B8421ED20198013001900198CB
:100D2000B842E7D317E000BF5422019B02FB00F753
:100D3000BB429CD30FE000BF21680CE0086880072D
:100D400009D40868800706D4086880075CBF086873
:100D50005FEA8070F2D56FF012000860A06A40F47C
:100D60000070A062886800F46020B0F5602F01D1A7
:100D7000207B18B1002002B0BDE8F081A06A20F409
:100D80008070A062A06AC004F4D4A06A40F00100A0
:100D9000A062002002B0BDE8F081000010B504465A
:100DA00090F82400012804BF022010BD012084F81F
:100DB00024002046FFF7B8FB20B1002084F824006F
:100DC000012010BD42F2044C2068A16AC4F2010C5B
:100DD00040F2013291430CF57F7201F5807190422F
:100DE000A16229D0A16A21F48011A162416849055C
:100DF00004D5A16A012363F30D31A162A16A002326
:100E0000C9044FF0000144BFE16A21F00601E1622C
:100E10006FF0020184F824300160816801F46021E0
:100E2000B1F5602F1BD1904214D0816841F4A0012C
:100E30008160002010BD00BFDCF8001011F4702F9D
:100E4000D0D0A16A41F48011A162DCF800104905FC
:100E5000CFD4D3E7DCF8001011F4702FE5D081680F
:100E600041F480118160002010BD0000B0B504463F
:100E700090F82400012804BF0220B0BD01212068A1
:100E800084F824108168C90709D0816821F0010124
:100E9000816000F053F921688968C9070ED12146A5
:100EA00051F8280F41F2011220EA0202002042F01C
:100EB00001020A60002184F82410B0BD054602E05A
:100EC0008068C007EBD000F039F9411B2068032986
:100ED000F6D38168C907F3D0A06A214640F010001C
:100EE000A06251F82C2F0120E1E70000B0B50446C4
:100EF00000F024F9054640F20000C2F2000000783C
:100F0000611C18BF044400BF00F018F9401BA04248
:100F1000FAD3B0BD2DE9F04F82B00E68002E00F07C
:100F2000FD8041F20042C4F20102042340F2004E6F
:100F3000904208BF03234FF6FF7CC4F2010E0093DA
:100F400000240123C1F2100C4FF0000A4FF00009F9
:100F50004BE000BF41F20002C4F20102009F904248
:100F600008BF022704F00C030F229A402BEA02026A
:100F700007FA03F34FEA9A051A4346F825204E680C
:100F800040F20C45F202DEF8082054BF22EA0802C3
:100F900042EA0802C4F20105CEF808202A68B3022A
:100FA00054BF22EA080242EA08022A60B303DEF8CC
:100FB000042054BF22EA080242EA0802F303CEF8F2
:100FC0000420DEF800204FF0010354BF22EA08029B
:100FD00042EA0802CEF800200E680AF1010A36FA49
:100FE0000AF204F1040400F0998003FA0AFB16EAFD
:100FF0000B08F1D04E68664512DC122E56D8DFE899
:1010000006F0350B4D4955555555555555555555C2
:1010100055555545510000BFD1F80C9046E000BF32
:101020004FF6FF72C1F2210296420FDC0022C1F29C
:10103000110296421AD00022C1F21202964215D035
:101040000022C1F22102964210D02FE00022C1F20C
:10105000220296420AD00022C1F23102964205D005
:101060000022C1F23202964220D100BF8A684AB102
:10107000012A14BFC0F814B0C0F810B04FF008092E
:1010800014E000BF4FF0040910E000BFCA6802F18D
:1010900004090BE04FF0000908E000BFCA6802F144
:1010A000080903E0CA6802F10C0900BF024626469F
:1010B000B8F5807F24BF0432203E17680F25B54065
:1010C00027EA050509FA06F635431560CA79D206FE
:1010D0007FF582AF41F21803C4F202031A68AEF53D
:1010E0007E7642F001021A601A6802F00102019253
:1010F000019A2AF0030256F802B040F60002C4F248
:101100000102904208D040F60042C4F2010290422F
:101110007FF420AF012725E7002723E702B0BDE8D1
:10112000F08F00008068084018BF01207047000061
:10113000002A08BF090401617047000040F2FC501A
:10114000C2F2000000687047002804BF0120704709
:10115000F0B581B0044690F83D0028B9002084F82D
:101160003C00204600F090F9242084F83D002068DF
:10117000016821F001010160016841F40041016052
:10118000016821F40041016000F0B2FB636848F29D
:10119000A16CC0F2010C40F60011C0F23D016345A4
:1011A0003CBF48F28041C0F21E01884202D20120B9
:1011B00001B0F0BD4DF68361C4F21B31A0FB0112FA
:1011C0002168970CD1F804E04FF496762EF03F0595
:1011D00045EA92454D60774348F638160D6AC0F2ED
:1011E0004106A7FB067625F03F07634538BF960CFE
:1011F000721C3A430A62CA6948F2A0664CF6FF774D
:10120000C0F20106B34222EA07020BD801385B00A4
:10121000B0FBF3F001306FF31F30042898BF0420B7
:101220001BE000BFA768013857B119277B43B0FB0B
:10123000F3F001306FF31F3070B100F5804007E02C
:1012400003EB4303B0FBF3F001306FF31F3018B131
:1012500000F5004001E000BF01201043C8610868AC
:10126000D4E9072320F0C0001043184308608868C1
:1012700048F2FF3204F10C0790438CCF184310431F
:10128000A6698860C86820F0FF0038433043C86012
:10129000086840F00100086000202021206484F8E4
:1012A0003D10206384F83E0001B0F0BD2DE9F0430D
:1012B00083B01E46174689460446FFF73FFF94F861
:1012C0003D10202924D10546206800BF8169890787
:1012D0001AD5FFF733FF411B20681A29F6D381691D
:1012E0008907F3D500202021206384F83D1084F87D
:1012F0003E00216C41F02001216484F83C00022072
:1013000003B0BDE8F08300BF94F83C10012903D17D
:10131000022003B0BDE8F083012184F83C1001688D
:10132000C90703D1016841F001010160016840F281
:10133000020821F400610160212184F83D10102190
:1013400084F83E100021216467626685618DC0F2D9
:1013500001082185A8F10211E162E16A0A9E11F5F6
:10136000803F18BF01291DD1016841F480710160DF
:1013700020464FF0011100223346009501F09AF803
:1013800050B120680068C00544BF4FF4007020646D
:10139000012003B0BDE8F0832069B0F5804F07D18C
:1013A000FE2015E00829DFD0216B1229DCD0DFE711
:1013B000062000EAD9102168F030086108F1060122
:1013C000204632462B4601F05BF90028E0D1FF2091
:1013D000216800EA090008612046414632462B4652
:1013E00001F04EF90028D3D1002002902068416915
:1013F000029180690290029806E000BF20463146C3
:101400002A4600F0F9FF18BB208D68B3204631460C
:101410002A4601F0A1F9D8B9606A2168024612F89B
:10142000013B0B616262628D013A6285228D531E1F
:1014300023854F697F07E1D51B04DFD04378023055
:101440000B616062608D01386085901E2085D5E754
:10145000206C04289CD12068016841F4007101606F
:10146000012003B0BDE8F0832068016841F40071F9
:101470000160202084F83D00002084F83E0084F8BC
:101480003C0003B0BDE8F08310B586B0016845F2BA
:101490000040C4F2000081424FF00001CDE9041188
:1014A000CDE9021102D006B010BD00BF41F2180410
:1014B000C4F20204216800F5384041F008012160BF
:1014C000216801F0080101910199C02102911221C6
:1014D00003910321059102A9FFF71CFD606840F408
:1014E00000106060606800F400100190019806B080
:1014F00010BD000040F2000040F2FC51C2F20000BA
:10150000C2F2000100780A681044086070470000C9
:1015100080B542F20000C4F20200016841F01001FF
:101520000160032000F07AF80F2000F005F800F0C9
:1015300027F8002080BD000070B540F20006C2F21E
:10154000000640F208013278C2F200014FF47A73CB
:101550000968B3FBF2F20446B1FBF2F1084600F071
:10156000EFFB0F2C4FF0010508D838B94FF0FF30D2
:1015700021460022002500F025F87460284670BD41
:1015800082B041F21800C4F202000168022241F068
:1015900001010160016801F00101019101994168B7
:1015A00041F080514160406800F080500090009808
:1015B0000420C4F20100016862F31A61016002B004
:1015C0007047000010B54EF60C5CCEF2000CDCF853
:1015D0000030C3F3022E8EF00704042C28BF04242D
:1015E000BEF103034FF0FF3E0EFA04F438BF0023B0
:1015F000A14399400EFA03F39A43114300F00F02FE
:1016000000F160430901043A03F564436244002891
:1016100048BF02F10C03197010BD00004EF60C51CA
:10162000CEF200010A684FF6FF031A4060F30A2267
:1016300042F0806040F0FD7008607047012821D0C2
:1016400002280DD0102808D141F20401C4F2020191
:101650000A6851F8040CC00134D40020704700BF60
:1016600080B500F059F941F20401C4F202010968A1
:101670000222C1F3813102EB4101B0FBF1F0BDE880
:101680008040704741F20400C4F20200C16940F298
:1016900002320A40B2F5817F04BF4FF40040704728
:1016A00001F44071B1F5407F18D0B1F5007F1CBF47
:1016B00000207047006A49F64041800701EAE07067
:1016C000704700BFC2F3834015A3185CD2030DD44A
:1016D00040F60012C0F23D02504313E050F8040CF3
:1016E0004FF22441800301EAE07070470A6810A3BA
:1016F000C2F340429A5C41F20023C0F27A03B3FB8A
:10170000F2F250430968490248BF70474AF6AB21DC
:101710004000CAF6AA21A0FB01014808704700BF9B
:1017200002030405060708090A0B0C0D0E0F101022
:1017300001020000002804BF012070472DE9F0439A
:1017400081B042F20008C4F202080446D8F8000052
:101750000D4600F0070081420CD9D8F8000020F0B7
:1017600007002843C8F80000D8F8000000F0070080
:10177000A8426CD1206841F204098107C4F2020931
:1017800017D5410705D5D9F8001041F4E061C9F833
:101790000010010705D5D9F8001041F46051C9F8CF
:1017A0000010D9F80010A26821F0F0011143C9F827
:1017B0000010C00742D1D8F8000000F007008542B1
:1017C0000CD2D8F8000020F007002843C8F8000029
:1017D000D8F8000000F00700A84238D1206841077F
:1017E00007D5D9F80010E26821F4E0611143C9F887
:1017F0000010000708D5D9F80000216920F46050D6
:1018000040EAC100C9F80000D9F8002002F00C003D
:10181000082841F20020C0F27A004DD144F2F603CC
:10182000C2F38341C0F60003595CD20338D440F6BA
:101830000010C0F23D0048433EE000BF606859F828
:10184000041C022808D0012826D1890306D40120CF
:1018500001B0BDE8F08300BF8901F8D5D9F80010C8
:1018600021F003010843C9F80000FFF767FC0646B2
:1018700041F28837D9F80000616800F00C00B0EB45
:10188000810F98D0FFF75AFC801BB842F2D9032091
:1018900001B0BDE8F08300BF8907D8D5DEE700BFFF
:1018A000D9F8002044F2F403C2F34042C0F600032A
:1018B0009A5C4843B0FBF2F0D9F8001043F6FC62A2
:1018C000C1F30311C0F60002515C40F2080220FA95
:1018D00001F140F20400C2F200000068C2F200020E
:1018E0001160FFF729FE002001B0BDE8F083000081
:1018F00040F2080041F20401C2F20000C4F2020109
:101900000068096843F60C72C1F30221C0F60002B8
:10191000515CC8407047000040F2080041F20401E9
:10192000C2F20000C4F202010068096843F60C72BA
:10193000C1F3C221C0F60002515CC84070470000EC
:10194000002804BF012070472DE9F04182B0044611
:10195000007841F20006C007C4F202060CD070689D
:1019600000F00C00042840F081803068800303D52B
:101970006068002800F04681207880071BD57068D9
:1019800010F00C0F09D0706800F00C00082840F02F
:1019900087807068C00300F183803068800703D5BA
:1019A0002069012840F02E813068616920F0F8003C
:1019B00040EAC10030602078000713D42078400747
:1019C0002CD4E569002D00F01881706800F00C003F
:1019D000082840F0A780012D40F00481012002B0CA
:1019E000BDE8F081A069002800F084800020C4F2E6
:1019F00042200121C0F88014FFF7A0FB054600BF7C
:101A0000706A800700F1B280FFF798FB401B022844
:101A1000F6D9032002B0BDE8F08100BFF0695FEAAB
:101A2000C00808D4F06940F08050F061F06900F01F
:101A300080500090009847F20007C4F20007386811
:101A4000C00549D4386840F480703860FFF776FBF1
:101A5000054600BF3868C0053ED4FFF76FFB401B4A
:101A60006428F7D9032002B0BDE8F081706800F067
:101A70000C00082803D17068C0033FF576AF616899
:101A80003068002900F00C81B1F5A02F00F0008132
:101A9000B1F5803F40F01A8140F480301CE100BF76
:101AA0002069002840F20000C4F2422000F0888043
:101AB00001210160FFF742FB054600BF3068800747
:101AC0003FF572AFFFF73AFB401B0228F6D903201F
:101AD00002B0BDE8F08100BFE168306A002900F083
:101AE0009D80052900F09280012940F0AF8040F0F0
:101AF0000100B1E00020C4F242200021C0F88014AF
:101B0000FFF71CFB054600BF706A80077FF556AFE4
:101B1000FFF714FB401B0228F6D9032002B0BDE8F2
:101B2000F08100BF0027C4F2422700203866FFF78B
:101B300005FB022D05460DD13068800140F1DE80A5
:101B4000FFF7FCFA401B02284FF00300F4D902B063
:101B5000BDE8F081306880014FD5FFF7EFFA401BF8
:101B600002284FF00300F5D9F1E700BF40F208006A
:101B7000C2F20000006844F6D351C1F26201A0FB3A
:101B80000101480A019000BF00BF0198411E0028D2
:101B900001913FF413AF00BF0198411E002801914D
:101BA0003FF40CAF00BF0198411E002801913FF4A3
:101BB00005AF00BF0198411E00280191E4D1FDE668
:101BC00000210160FFF7BAFA054600BF30688007C0
:101BD0007FF5F1AEFFF7B2FA401B02284FF0030089
:101BE000F4D9B4E77068216A00F480328A4209D1DE
:101BF000616A00F47010884204D1002002B0BDE890
:101C0000F08100BF012002B0BDE8F08140F0040087
:101C10003062306A40F001001EE000BF20F0010099
:101C20003062306A20F004003062FFF787FA054620
:101C300041F28837306A800720D5FFF77FFA401BD2
:101C4000B8424FF00300F5D981E700BF20F0010052
:101C50003062306A20F004003062FFF76FFA054608
:101C600041F28837306A800708D4FFF767FA401BD3
:101C7000B842F7D9032002B0BDE8F081B8F1000FF7
:101C80003FF59FAEF06920F08050F06199E600BF0B
:101C900040F480203060306840F480301CE000BFA9
:101CA00020F480303060306820F480203060FFF70E
:101CB00045FA0546306880037FF55EAEFFF73EFAD1
:101CC000401B64284FF00300F4D940E720F4803033
:101CD0003060306820F480203060FFF72FFA05462E
:101CE000306880033FF548AEFFF728FA401B6428B0
:101CF000F6D9032002B0BDE8F08100BF206AB0F53C
:101D0000803F05D17168A26821F4003111437160F0
:101D10007168626A21F474111143084370600120F4
:101D20003866FFF70BFA0446306880013FF565AF6F
:101D3000FFF704FA001B02284FF00300F4D906E76E
:101D4000411E0020B0EB116F1CBF012070474EF206
:101D50001002CEF2000251604EF62351CEF2000185
:101D6000F0230B700721906011607047002804BFBA
:101D70000120704710B590F83D1031B9002180F86E
:101D80003C10044600F070F82046022180F83D1017
:101D9000016840F2FF740B68C4F2000442F6004C84
:101DA000A142C4F2010C15DCB1F1804F1AD040F20F
:101DB0000042C4F20002914214D0A14218DCB1F1F9
:101DC000804F1DD040F20042C4F20002914217D071
:101DD0001AE000BF614505D040F60002C4F20002DF
:101DE0009142EAD1826823F070031343A142E6DDF9
:101DF000614505D040F60002C4F20002914203D1D1
:101E0000026923F440731343846923F08002D0F8FD
:101E100004E0C368224361450A60CB62C1F828E050
:101E200002D14269CCF8302001224A610B69DB07FC
:101E300003D00B6923F001030B6180F8462080F882
:101E40003E2080F83F2080F8402080F8412080F834
:101E5000422080F8432080F8442080F8452080F814
:101E60003D20002010BD000083B00068B0F1804F1D
:101E70002ED040F20041C4F20001884218D042F650
:101E80000041C4F2010188421FD141F21C00C4F29A
:101E9000020050F8041C41F4006140F8041C50F8A2
:101EA000040C00F400600290029803B0704700BF79
:101EB00041F21C00C4F20200016841F0020101601D
:101EC000006800F002000090009803B0704700BF67
:101ED00041F21C00C4F20200016841F001010160FE
:101EE000006800F001000190019803B07047000005
:101EF00090F83D1001291CBF01207047022180F895
:101F00003D10006840F2FF71C4F20001884209DC14
:101F1000B0F1804F12D040F20041C4F2000188427B
:101F20000CD012E042F60041C4F20101884205D013
:101F300040F60001C4F20001884206D1816801F038
:101F40000701062904BF00207047016841F0010124
:101F500001600020704700000146006841F2111343
:101F6000026A1A4204D00122002081F83D20704705
:101F7000026A40F244431A42F5D1026822F001029B
:101F800002600122002081F83D20704780B586B0B4
:101F9000014640F60000C4F20100096800F5105245
:101FA00091424FF00001CDE90411CDE9021101D0B9
:101FB00006B080BD41F21801C4F202010A6842F085
:101FC00004020A60096801F00401019101994FF4CB
:101FD00080710291022103910321059102A9FEF76C
:101FE00099FF06B080BD000090F83C30012B04BF83
:101FF000022070474FEAB202032A00F2F1802DE975
:10200000F043DFE802F003A53B7500BF036842F62A
:1020100000461D6A1A6AC4F2010622F001021A6221
:102020001A465C6852F818CFB3428E68D1F800E0C7
:1020300025F0020545EA06050CD1CE68D1E9057800
:1020400024F4407425F00C0526F004063C43354387
:1020500044EA08042CF0730747EA0E075C609F61AE
:102060004F6809695F631D629F6947F008079F61B8
:102070009F6927F004079F61A6E000BF036842F64E
:1020800000461D6A1A6AC4F2010622F480721A62BE
:102090001A46D3F804C052F81CEFB3428E680C689D
:1020A00025F4007545EA06250FD1CE68D1E90598DB
:1020B000360240F2FF4725F44065BE4335432CF419
:1020C000405748EA090647EA061C2EF073072743E3
:1020D000C3F804C0DF614F680969DF631D62DF690F
:1020E00047F00807DF61DF6927F00407DF616BE075
:1020F000036842F60047D3F820C01A6AC4F2010709
:1021000022F480521A621A465C6852F81C5FD1F8B9
:1021100000E08E68BB4204D14F6924F4804444EA55
:1021200087142CF4005747EA063725F4E64646EABA
:102130000E265C60DE614E6809691E641F62DF69FD
:1021400047F40067DF61DF6927F48067DF613AE009
:10215000036842F600461D6A1A6AC4F2010622F0BC
:1021600010021A621A46D3F804C052F8184FB3424C
:102170008E68D1F800E025F0200545EA06150FD15C
:10218000CE68D1E905986FF0400725F0C00507EA51
:10219000061635432CF4406748EA090647EA860CE0
:1021A00024F4E64444EA0E27C3F804C09F614F6854
:1021B00009699F631D629F6947F400679F619F697A
:1021C00027F480679F610902136819431160002199
:1021D000BDE8F043002280F83C200846704700BF6D
:1021E0000121002280F83C2008467047002804BFE7
:1021F0000120704710B590F83D1031B9002180F8EA
:102200003C10044600F070F82046022180F83D1092
:10221000016840F2FF740B68C4F2000442F6004CFF
:10222000A142C4F2010C15DCB1F1804F1AD040F28A
:102230000042C4F20002914214D0A14218DCB1F174
:10224000804F1DD040F20042C4F20002914217D0EC
:102250001AE000BF614505D040F60002C4F200025A
:102260009142EAD1826823F070031343A142E6DD74
:10227000614505D040F60002C4F20002914203D14C
:10228000026923F440731343846923F08002D0F879
:1022900004E0C368224361450A60CB62C1F828E0CC
:1022A00002D14269CCF8302001224A610B69DB0778
:1022B00003D00B6923F001030B6180F8462080F8FE
:1022C0003E2080F83F2080F8402080F8412080F8B0
:1022D000422080F8432080F8442080F8452080F890
:1022E0003D20002010BD0000006842F60041C4F20D
:1022F0000101884218BF704781B041F21800C4F252
:102300000200016841F400610160006800F40060AF
:102310000090009801B07047C1B1042908D0082985
:1023200014BF41224022825C012A05D016E000BF82
:102330003F22825C012A11D10222082910D00429EF
:1023400014BF80F8412080F83F200BE090F83E2039
:10235000012A03D1022280F83E2003E001207047C9
:1023600080F84020006801F01F010122036A8A40C2
:1023700023EA02010162036A42F64441C4F2010108
:102380001A43A1F14403984202620FD040F2FF7158
:10239000C4F20001884213DCB0F1804F1CD040F23F
:1023A0000041C4F20001884216D01CE00A6842F4E1
:1023B00000420A6040F2FF71C4F200018842EBDD86
:1023C00042F60041C4F20101884205D040F6000106
:1023D000C4F20001884206D1816801F00701062994
:1023E00004BF00207047016841F001010160002036
:1023F00070470000FEE7000070B50368044653F81C
:10240000140F400711D40E46481C29D086BB00BFCC
:102410001868400527D4FEF791FE236853F8140F7F
:10242000400737D518684007F2D5002070BD00BFBF
:1024300018684007F9D41868400514D41868400794
:10244000F3D4186840050ED418684007EDD4186816
:10245000400508D4186840074FF0000048BF70BD21
:1024600018684005E4D56FF480601860042012E01D
:10247000154603E053F8140F4007D6D418684005FA
:10248000F1D4FEF75BFE401B2368B042F2D95869D5
:102490004007EFD4202000212022216384F83D2032
:1024A00084F83E10226C10432064012084F83C1014
:1024B00070BD00002DE9F041054600681E46144637
:1024C00001F47F0201338FB242D0DDF81880B2F5FB
:1024D000803F40F0878040693840C01BB0FA80F0F0
:1024E0004009844240F0C8804EB924E04069384039
:1024F000C01BB0FA80F04009844240F0BD80FEF776
:102500001DFEA0EB08012868B142EFD941693940AE
:10251000C91BB1FA81F149098C42E7D19BE000BFA8
:1025200040693840C01BB0FA80F0400984424FF047
:10253000000040F0A280FEF701FE286841693940A2
:10254000C91BB1FA81F149098C42E9D183E000BF8E
:10255000B2F5803F24D100BF41693940C91BB1FAAF
:1025600081F149098C4240F0878041693940C91B9B
:10257000B1FA81F149098C4240F07E8041693940CD
:10258000C91BB1FA81F149098C4275D141693940C1
:10259000C91BB1FA81F149098C42DDD06CE000BF62
:1025A00081693940C91BB1FA81F149098C4263D173
:1025B00081693940C91BB1FA81F149098C425BD16B
:1025C00081693940C91BB1FA81F149098C4253D163
:1025D00081693940C91BB1FA81F149098C42DFD0C8
:1025E0004AE000BF80693840C01BB0FA80F0400963
:1025F000844241D146B923E080693840C01BB0FA1B
:1026000080F04009844237D1FEF798FDA0EB080125
:102610002868B142F0D981693940C91BB1FA81F10A
:1026200049098C42E8D116E080693840C01BB0FAF5
:1026300080F0400984424FF0000018BFBDE8F081EF
:10264000FEF77CFD286881693940C91BB1FA81F128
:1026500049098C42E8D100202021286385F83D10EB
:1026600085F83E00296C41F02001296485F83C0082
:102670000120BDE8F08100BF0020BDE8F08100002E
:10268000F0B581B0044600681D4643698FB203EA85
:102690000701B94202D1002001B0F0BD41691646E0
:1026A00001323CD0490512D47EB300BFFEF746FD8F
:1026B000411B2068B14203D941693940B9422BD14D
:1026C00041693940B942E6D041694905EED5016812
:1026D00041F4007101606FF48061416104200021C8
:1026E0002022216384F83D2084F83E10226C1043A0
:1026F000206484F83C10012001B0F0BD41693940EC
:10270000B942C8D041694905E1D4FEF717FD2068F8
:1027100041693940B942F1D02020E0E741694905DB
:10272000D5D441693940B942B5D041694905CED4C3
:1027300041693940B942AED041694905C7D44169C0
:102740003940B942A7D041694905C0D441693940EF
:10275000B942E3D19FE7000070B50368044653F81F
:10276000140F000611D40E46481C29D086BB00BFAA
:102770001868400527D4FEF7E1FC236853F8140FCE
:10278000000637D518680006F2D5002070BD00BFDE
:1027900018680006F9D41868400514D418680006B3
:1027A000F3D4186840050ED418680006EDD41868F4
:1027B000400508D4186800064FF0000048BF70BDFF
:1027C00018684005E4D56FF480601860042012E0BA
:1027D000154603E053F8140F0006D6D418684005D8
:1027E000F1D4FEF7ABFC401B2368B042F2D9586924
:1027F0000006EFD4202000212022216384F83D2010
:1028000084F83E10226C10432064012084F83C10B0
:1028100070BD0000FEE70000FEE70000704700000A
:102820002DE9F04F81B040F274074FF00008C2F27A
:1028300000074FF0800940F6B8364FF0000B4FF01C
:10284000000A40F6B93400BF78683988FEF76AFCA0
:1028500010B9013CF8D135E0B8680168C1F82480AE
:10286000FFF746FBB86801684A6A272A08D84A6A0F
:10287000272A05D84A6A272A02D84A6A282AF3D37F
:10288000FFF76AFB78683988FEF74CFC04460025A0
:10289000002818BF29FA0AF478683988FEF742FC44
:1028A00018B1B54205F10105F6D34BEA040BBAF1B4
:1028B000070F0AF1010AC4D35FFA8BF001B0BDE83B
:1028C000F08F00BF4FF0000B5FFA8BF001B0BDE856
:1028D000F08F000080B5012840F2CC004FF00002DC
:1028E000C2F200004FF4806108BFFF22FDF70EFD29
:1028F00080BD0000F0B583B040F2F854C2F200048D
:1029000020606420FEF7F2FA4FF42E412068ADF803
:102910000A104FF0FF350DF10A02782102230095CD
:10292000FEF7C4FC4FF400512068ADF80A100DF119
:102930000A02782102230095FEF7B8FC20680027E0
:102940000DF10A0278210223ADF80A700095FEF716
:10295000ADFC4FF430412068ADF80A100DF10A02C9
:10296000782102230095FEF7A1FC4FF4484120682E
:10297000ADF80A100DF10A02782102230095FEF746
:1029800095FC20680DF10A0278210223ADF80A7047
:102990000095FEF78BFC4FF480512068ADF80A10CB
:1029A0000DF10A02782102230095FEF77FFC2068D2
:1029B0004FF480460DF10A0278210223ADF80A6037
:1029C0000095FEF773FC4FF401412068ADF80A1042
:1029D0000DF10A02782102230095FEF767FC4FF4FF
:1029E000FE412068ADF80A100DF10A027821022399
:1029F0000095FEF75BFC4FF421412068ADF80A100A
:102A00000DF10A02782102230095FEF74FFC4FF4E6
:102A100026412068ADF80A100DF10A027821022340
:102A20000095FEF743FC4FF428412068ADF80A10EA
:102A30000DF10A02782102230095FEF737FC4FF4CE
:102A40007C512068ADF80A100DF10A0278210223AA
:102A50000095FEF72BFC4FF424412068ADF80A10D6
:102A60000DF10A02782102230095FEF71FFC4FF4B6
:102A700053412068ADF80A100DF10A0278210223B3
:102A80000095FEF713FC20680DF10A02782102235D
:102A9000ADF80A700095FEF709FC4FF45541206827
:102AA000ADF80A100DF10A02782102230095FEF715
:102AB000FDFB4FF400412068ADF80A100DF10A0249
:102AC000782102230095FEF7F1FB4FF4594120686D
:102AD000ADF80A100DF10A02782102230095FEF7E5
:102AE000E5FB4FF471412068ADF80A100DF10A02C0
:102AF000782102230095FEF7D9FB4FF45A41206854
:102B0000ADF80A100DF10A02782102230095FEF7B4
:102B1000CDFB4FF490512068ADF80A100DF10A0278
:102B2000782102230095FEF7C1FB4FF45B4120683A
:102B3000ADF80A100DF10A02782102230095FEF784
:102B4000B5FB20680DF10A0278210223ADF80A6076
:102B50000095FEF7ABFB4FF40D412068ADF80A106D
:102B60000DF10A02782102230095FEF79FFB4FF436
:102B7000A0512068ADF80A100DF10A027821022355
:102B80000095FEF793FB4FF42F412068ADF80A1033
:102B90000DF10A02782102230095FEF787FB40F22F
:102BA000CC00C2F200004FF48061FDF7B7FB00F0EB
:102BB0000BF803B0F0BD000040F27002C2F2000258
:102BC00010705170704700002DE9F04F87B00DF183
:102BD0000B094FF6004740F2F85609F101054FF096
:102BE0000008CFF6FF77C2F200064FF0FF344FF037
:102BF000000B00BF4BF0B00130688DF80C1078214D
:102C00004A4602238DF80B800094FEF74FFB306894
:102C100078214A460223ADF80B800094FEF746FB6C
:102C200030684FF48051ADF80B1078214A460223EA
:102C30000094FEF73BFB40F2CC00C2F2000000EB38
:102C4000070A40208DF80B00DAF80004DAF80414C3
:102C5000DAF80824DAF80C34286030686960AA6071
:102C6000EB6078214A4611230094FEF71FFBDAF847
:102C70001004DAF81414DAF81824DAF81C3428608E
:102C800030686960AA60EB6078214A46112300949D
:102C9000FEF70CFBDAF82004DAF82414DAF828241A
:102CA000DAF82C34286030686960AA60EB6078211B
:102CB0004A4611230094FEF7F9FADAF83004DAF8FC
:102CC0003414DAF83824DAF83C3428603068696063
:102CD000AA60EB6078214A4611230094FEF7E6FAD9
:102CE000DAF84004DAF84414DAF84824DAF84C3414
:102CF000286030686960AA60EB6078214A46112339
:102D00000094FEF7D3FADAF85004DAF85414DAF83B
:102D10005824DAF85C34286030686960AA60EB6097
:102D200078214A4611230094FEF7C0FADAF86004CD
:102D3000DAF86414DAF86824DAF86C342860306859
:102D40006960AA60EB6078214A4611230094FEF77F
:102D5000ADFADAF87004DAF87414DAF87824DAF8EC
:102D60007C34286030686960AA60EB6078214A464C
:102D700011230094FEF79AFA80370BF1010B7FF4D0
:102D800039AF07B0BDE8F08F2DE9F04FAAB041B2DE
:102D90001F221F29C8BFA0F1200240F27000C2F21A
:102DA000000090F801A0D1B20AF0070201200092C1
:102DB00000FA02F20AF101031D9203F007020492E5
:102DC00000FA02F20AF102081C9208F007020792C8
:102DD00000FA02F21B920AF103020E9202F00707B8
:102DE00043F6147201EB8101C0F6000211442791F1
:102DF00000FA07F10AF1040609971A9106F0070193
:102E00000AF10507039100FA01FB07F007010AF137
:102E10000605089100FA01FE05F007010AF1070214
:102E20000B9100FA01FC02F007010D9100FA01F18B
:102E30004FF4607000EA0314259400EA0814249407
:102E40000E9C00EA0A1900EA0414239400EA06140E
:102E5000229400EA0714219400EA051400EA021003
:102E60001F9040F27000C2F20000CDF8989090F8E8
:102E700000901D98CDF864B0C04316901C98019640
:102E8000C04315901B982094C04314901A98CDF815
:102E900060E0C04313906FEA0B0012906FEA0E00DF
:102EA00011906FEA0C00CDE90F10C8431E90D8B204
:102EB00028900E985FFA86FB40F2CC060021029320
:102EC000CDF814805FFA88FE5FFA80F8F8B2EBB2B2
:102ED000D4B2C2F20006CDF85CC0069729900A95DC
:102EE0000C9209E01F983843325C0F9F3A433254EA
:102EF0000131052900F0F88009EB01077AB2002AB8
:102F0000F6D42798BAF13F0F425CFFB216D9289841
:102F10003F2837D9BEF13F0F51D9B8F13F0F6AD9D9
:102F2000BBF13F0F40F2858029983F2840F29980FD
:102F30003F2B40F2B1803F2CDAD8C9E0F446CE46B0
:102F4000C146D8465FEAC27B0AD1269840EA070B01
:102F500016F80B501698054006F80B500BE000BF12
:102F6000269840EA0705705D1D9E304340F2CC066E
:102F7000C2F200067055C346C846F146E646289898
:102F80003F28C7D890070DD4259840EA070C16F8BB
:102F90000C501598054006F80C50BEF13F0FBCD8F8
:102FA0000DE000BF25983843355C1C9E354340F248
:102FB000CC06C2F200063554BEF13F0FADD8500723
:102FC0000CD4249840EA070C16F80C5014980540CD
:102FD00006F80C50B8F13F0FA2D80CE02498384303
:102FE000355C1B9E354340F2CC06C2F200063554D8
:102FF000B8F13F0F94D810070ED4239840EA070C7D
:1030000016F80C501398054006F80C50BBF13F0F12
:103010003FF68AAF0DE000BF239840EA070C16F890
:103020000C501A98054306F80C50BBF13F0F3FF6C1
:103030007BAFD00608D4229840EA070C16F80C5053
:103040001298054007E000BF229840EA070C16F8E6
:103050000C501998054306F80C5029983F283FF664
:1030600067AF90060CD4219840EA070C16F80C5074
:103070001198054006F80C503F2B3FF65CAF0BE073
:10308000219840EA070C16F80C501898054306F8EA
:103090000C503F2B3FF64FAF50060DD4209840EA1E
:1030A000070C16F80C501098054006F80C503F2CF1
:1030B0003FF61EAF0CE000BF209840EA070C16F860
:1030C0000C501798054306F80C503F2C3FF610AFF4
:1030D00050B2B0F1FF3F7FF705AF1F983843325C25
:1030E0001E9F3A4003E700BF09F105014AB2002ADA
:1030F00022D4BAF13F0FC9B228D928983F2833D932
:10310000BEF13F0F3FD9B8F13F0F4BD9BBF13F0F95
:1031100057D929983F2863D93F2B6FD93F2C0BD81B
:103120000C9A0D9F02F0380241EA02110120725CF4
:10313000B84022EA0000705440F2700109F1060024
:10314000C2F2000108702AB0BDE8F08F0AF0380220
:1031500041EA0212009D0120B75CA84027EA000066
:10316000B05428983F28CBD8029A049D02F0380228
:1031700041EA02120120B75CA84027EA0000B054DF
:10318000BEF13F0FBFD8059A079D02F0380241EA11
:1031900002120120B75CA84027EA0000B054B8F141
:1031A0003F0FB3D80E9A099D02F0380241EA02128D
:1031B0000120B75CA84027EA0000B054BBF13F0FE4
:1031C000A7D8019A039D02F0380241EA02120120B9
:1031D000B75CA84027EA0000B05429983F289BD844
:1031E000069A089D02F0380241EA02120120B75CFB
:1031F000A84027EA0000B0543F2B8FD80A9A0B9DB5
:1032000002F0380241EA02120120B75CA84027EA26
:103210000000B0543F2C7FF683AF8DE70178002982
:1032200008BF7047F0B581B040F27004C2F20004EC
:103230006578461C002700BF20787A2822BF2770B7
:1032400008356570E8B2372806D8C8B2FFF79CFD8C
:1032500016F8011B0029EFD101B0BDE8F04070471E
:103260007047000040F2C402C2F20002C2E900014D
:1032700070470000B0B540F2C405C2F200052868EE
:1032800058B1FDF78BFD40B928681421FDF74EFCBD
:103290000146286841B1FDF7E9FD00240020002126
:1032A00020430843B0BD00BFFDF75CFB296884B232
:1032B0000846FDF7DBFDA988EA888A420AD100208A
:1032C0004FF47F0101EA00404FF080712043084332
:1032D000B0BD00BF0AD9A142F1D2A2424FF06400B2
:1032E000EED9631A5843511A09E000BFA142E6D94A
:1032F000A2424FF06400E3D20B1B5843891AB0FB83
:10330000F1F0DDE7FEF7F6B870470000FEE70000D9
:1033100094B040F60044C4F20104FEF7F9F84FF40B
:1033200080300025012106900D904FF4E0100B95A0
:10333000CDE909550591099102210E9005A8CDE925
:1033400007550C910226FEF7FBFA0F20CDE90F0678
:103350004FF48060CDE912050FA802214FF002085A
:103360001195FEF7E7F941F2180BCDE90755CDE9C4
:103370000555C4F2020BDBF80000002240F0040007
:10338000CBF80000DBF8000040F6117600F00400F6
:103390000F900F98DBF8000040F00800CBF8000019
:1033A000DBF8000000F008000F900F98DBF8000039
:1033B00040F00100CBF80000DBF8000000F0010055
:1033C0000F900F980420C4F20100016868F31A619D
:1033D0000160204640F61171FDF7AAFE059605AE84
:1033E0000127204631460697CDF82080FDF792FD53
:1033F000F22005A9A1C1A4F5806738463146FDF742
:1034000089FD2020CDE90505204631460795FDF7C9
:1034100081FD204601210022FDF78AFE20464FF45F
:1034200070610122FDF784FE204610210022FDF785
:103430007FFE40F20046C4F2000640F2CC4048F263
:10344000A06106F5A043C2F20000C0F201014FF4F2
:103450008042C0E90031C0E90255C0E90425C0E955
:1034600006550562FDF770FE40F26850C2F200009A
:103470004FF0804147224FF6FF7AC0E900124FF02B
:103480004708C0E9025A0561FEF770FC40F2B059E6
:10349000C2F20009C9E9025A4FF0000A4846C9E9D8
:1034A0000068C9F810A0FEF761FC40F2205604F550
:1034B0000050C2F2000644F61F6186E8010530465E
:1034C000CDE90AAACDE908AAC6E9031AC6F814A0EC
:1034D000FEF78CFE602005904FF47A70CDE9060A65
:1034E00005A930460022CDF824A0FEF77DFD304628
:1034F000FEF74CFDCDF81CA0CDE905AADBF80000D5
:10350000022140F40070CBF80000DBF800004FF01F
:10351000010800F400700F900F985BF8140C61F331
:103520008F304BF8140C40F2800BC2F2000B04F504
:10353000C0505D4645F8140F4FF46020E8612846FE
:1035400085F80CA085F814A0C5E901AAC5F810807B
:10355000FDF70CFA0720079005A92846CDE905A834
:10356000FDF760F92846FDF7CFF84846FEF7C0FCA6
:1035700030460021FEF7D0FE3068416C41F4004136
:10358000416440F2CC40C2F20000FFF7B3F940F2D0
:10359000685238460221C2F20002FDF71FF840F6D9
:1035A000AC51C0F2DC512846FFF75CFE20464FF4D8
:1035B00070610122FDF7BCFD204601210022FDF7CC
:1035C000B7FD204610210022FDF7B2FD30684FF410
:1035D0007A714163FF2040F20C06039047F23055A8
:1035E000C2F2000600200290CDE9000004901AE02B
:1035F00000201021FFF7E0FA44F28310C0F600002B
:10360000FFF70CFE00203021FFF7D6FA44F24110FC
:10361000C0F60000FFF702FE01200490FFF7D4FA85
:103620007820FDF763FCFDF789FD0099401AB0F59D
:103630007A7F25D3FDF782FD009005A8FCF7D6FF21
:103640009DF81C00B0B105983C2813D80699642950
:1036500010DCCBE902011E284FF001008BF80000BE
:103660000CD38BF80100204601210122FDF760FDFB
:1036700006E000BFABF800A002E000BF8BF801A09D
:10368000FDF75CFD0199401AFA2861D3FDF756FD5C
:103690000190204610210022FDF74AFDD9F80000D4
:1036A000C0F824A0416A012908D8416A012905D837
:1036B000416A012902D8416A0229F3D32046102128
:1036C0000122FDF735FDD9F80000C0F824A000BFA5
:1036D000416A092908D8416A092905D8416A092996
:1036E00002D8416A0A29F3D3204610210022FDF7AF
:1036F0001FFDD9F80000C0F824A000BF20462021FB
:10370000FDF710FDD9F8001020B9486AA842F5D994
:1037100018E000BFC1F824A020462021FDF702FDDB
:10372000D9F800100128496A02D1A942F4D909E068
:1037300045F6DA204AF29A52081ACFF6FF72904202
:1037400080F012834FF0FF30306000208BF80200D1
:10375000FDF7F4FC0299401AB0F52F7F43D3FDF733
:10376000EDFC0290FFF786FDBAEB106F4FEA106296
:1037700020D0010C002A18BF01228BF80410C0F3DE
:10378000074100F47F030E294FF0000188BF01219B
:10379000B3F5702F4FF0000338BF0123B0F1807FE5
:1037A0008BF803208BF8053010D379B100208BF80B
:1037B00006000DE0002A18BF01229BF806008BF8D6
:1037C00003208BF805A0012102E000BF9BF8060052
:1037D0009BF80120084362EA000000F00102204645
:1037E0000121FDF7A5FC316800200B2938BF01201D
:1037F000039AD2B282420CD040F22052C2F20002AE
:1038000012680B294FF47A7138BF40F2DC515163D2
:10381000039020464FF470610122FDF789FC204699
:103820004FF480710022FDF783FCCDF814A00598B9
:10383000C7281BDC00BF0598013005900598C728F4
:1038400014DC00BF0598013005900598C7280DDCF1
:1038500000BF0598013005900598C72806DC00BF19
:103860000598013005900598C828E3DB38461021FB
:10387000FDF758FC00284FF0000838464FF02001B3
:1038800008BF4FF03108FDF74DFC002838464FF0D7
:10389000400108BF4FF03208FDF744FC00283846CD
:1038A0004FF0800108BF4FF03308FDF73BFC58B1E3
:1038B000B8F1000F02D09BF8070050B1B8F1000F2B
:1038C00008BF8BF807A00CE09BF8070048B94FF041
:1038D0004108FDF733FCDBF81010401A192800F2FC
:1038E0004D8120464FF470610122FDF721FC2046F6
:1038F0004FF400710022FDF71BFCCDF814A00598D1
:10390000C7281BDC00BF0598013005900598C72823
:1039100014DC00BF0598013005900598C7280DDC20
:1039200000BF0598013005900598C72806DC00BF48
:103930000598013005900598C828E3DB384610212A
:10394000FDF7F0FB00284FF0000838464FF020014B
:1039500008BF4FF03408FDF7E5FB002838464FF06C
:10396000400108BF4FF03508FDF7DCFB0028384662
:103970004FF0800108BF4FF03608FDF7D3FB58B178
:10398000B8F1000F02D09BF8070050B1B8F1000F5A
:1039900008BF8BF807A00CE09BF8070048B94FF070
:1039A0004208FDF7CBFBDBF81010401A192800F293
:1039B000E58020464FF470610122FDF7B9FB2046F7
:1039C0004FF480610022FDF7B3FBCDF814A00598F9
:1039D000C7281BDC00BF0598013005900598C72853
:1039E00014DC00BF0598013005900598C7280DDC50
:1039F00000BF0598013005900598C72806DC00BF78
:103A00000598013005900598C828E3DB3846102159
:103A1000FDF788FB00284FF0000838464FF02001E2
:103A200008BF4FF03708FDF77DFB002838464FF000
:103A3000400108BF4FF03808FDF774FB00283846F6
:103A40004FF0800108BF4FF03908FDF76BFB58B10C
:103A5000B8F1000F02D09BF8070050B1B8F1000F89
:103A600008BF8BF807A00CE09BF8070048B94FF09F
:103A70004308FDF763FBDBF81010401A192800F229
:103A80007D8020464FF470610122FDF751FB2046F6
:103A90004FF400610022FDF74BFBCDF814A0059810
:103AA000C7281BDC00BF0598013005900598C72882
:103AB00014DC00BF0598013005900598C7280DDC7F
:103AC00000BF0598013005900598C72806DC00BFA7
:103AD0000598013005900598C828E3DB3846102189
:103AE000FDF720FB00284FF0000A38464FF0200178
:103AF00008BF4FF02A0AFDF715FB002838464FF0A3
:103B0000400108BF4FF0300AFDF70CFB0028384693
:103B10004FF0800108BF4FF0230AFDF703FBA8B167
:103B2000BAF1000F03D09BF80700D046E0B1049A29
:103B3000BAF1000F4FF000084FF0000A08BF8BF8F1
:103B400007809BF80100D8BB8EE000BF9BF8070000
:103B5000049A38B14FF000084FF0000A9BF80100BA
:103B600070BB81E04FF04408FDF7E8FADBF8101075
:103B70004FF0000A401A1A286ED300BF8BF8078056
:103B8000FDF7DCFA049ACBF81000D1B2032913D167
:103B90009BF8010080B9B8F1410F0DD100284FF01A
:103BA00001008BF8060005D1204601210022FDF717
:103BB000BFFA049A4FF041089BF80100002853D047
:103BC0000020FEF787FE00200021FEF7F5FF44F2FB
:103BD0008E10C0F60000FFF721FB9BF800000128C3
:103BE0007FF406ADDBF8082005AE44F277113046CD
:103BF000C0F60001FCF706FBDBF80C200FAD44F229
:103C000029112846C0F60001FCF7FCFA002010211B
:103C1000FEF7D2FF304640F20C06C2F20006FFF774
:103C2000FDFA00202021FEF7C7FF284647F2305555
:103C3000FFF7F4FA00203021FEF7BEFF9BF80100E9
:103C400044F20611002844F23610C0F60000C0F617
:103C5000000118BF0846DDE4049A4FF000089BF805
:103C600001000028ACD100BFB8F1310F08BF01221C
:103C7000B8F1320F08BF0222B8F1330F08BF032298
:103C8000B8F1300F2ED1002000210491FEF722FE62
:103C900000200021FEF790FF44F29C10C0F60000C7
:103CA000FFF7BCFA00201021FEF786FF44F2A210B5
:103CB000C0F60000FFF7B2FA00202021FEF77CFFDB
:103CC00044F2B210C0F60000FFF7A8FA002030213D
:103CD000FEF772FF44F2C710C0F60000FFF79EFA2D
:103CE0009CE400BFD0B202284CD001283FF468AF5A
:103CF0000028C8D000200492FEF7ECFD002000212F
:103D0000FEF75AFF6CA0FFF789FA00201021FEF79A
:103D100053FF9BF80300012850D19BF8042005AE07
:103D200030466FA1FCF76EFA304640F20C06C2F244
:103D30000006FFF773FA00202021FEF73DFF9BF8F5
:103D400006009BF80510002844F21810C0F6000089
:103D500044F26212C0F6000218BF1046002964A1A6
:103D600008BF08462BE000BF88B244F29F62504370
:103D7000000D306040F27E2081424FF0000038BFDD
:103D80000120E3E40020FEF7A5FD00200021FEF75E
:103D900013FF2EA0FFF742FA00201021FEF70CFFC0
:103DA0003268002A24D405AE304630A1FCF72AFA46
:103DB000304640F20C06C2F200061AE044A0FFF7BB
:103DC0002DFA00203021FEF7F7FE9BF806009BF845
:103DD0000510C00744F24B10C0F6000044F2DF1299
:103DE000C0F6000218BF1046002908BF104675E74C
:103DF0001BA0FFF713FA00202021FEF7DDFE31683B
:103E000022A00B291DA238BF1046B1F1FF3F23A10C
:103E1000D8BF0846FFF702FA00203021FEF7CCFE9B
:103E200021A0FFF7FBF99BF8020021A1002821A0A7
:103E300008BF0846FFF7F2F944F24110C0F600004F
:103E4000FFF7ECF90220FFF7E8BB00BF20556C74C8
:103E50007261736F6E69632053656E736F720000D9
:103E600020446973743A202D2D00000020446973AA
:103E7000743A20256420636D0000000020446F6FB9
:103E8000723A204F50454E494E47000020446F6F14
:103E9000723A20434C4F53454400000020446F6F5A
:103EA000723A202D2D000000204E6561723A00000C
:103EB0004E4F00005945530020536F696C204D6FE1
:103EC0006973747572652053656E736F72000000BC
:103ED0002053656E736F723A204552524F52000064
:103EE000204D6F6973743A20257520252500000048
:103EF000205374617475733A204F4B00000000002A
:103F00000000000001020304060708090000000089
:103F100001020304000000000000005F0000000731
:103F2000000700147F147F14242A7F2A1223130809
:103F3000646236495522500005030000001C2241EE
:103F4000000041221C0014083E081408083E08081E
:103F500000503000000808080808006060000020D9
:103F6000100804023E5149453E00427F4000426134
:103F70005149462141454B311814127F10274545C0
:103F800045393C4A494930017109050336494949D7
:103F900036064949291E0036360000005636000014
:103FA00008142241001414141414004122140802AD
:103FB00001510906324979413E7E1111117E7F4936
:103FC0004949363E414141227F4141221C7F4949B6
:103FD00049417F090909013E4149497A7F0808089A
:103FE0007F00417F41002040413F017F0814224172
:103FF0007F404040407F020C027F7F0408107F3EDC
:104000004141413E7F090909063E4151215E7F0938
:10401000192946464949493101017F01013F404084
:10402000403F1F2040201F7F2018207F631408146A
:104030006307087008076151494543007F4141000B
:1040400002040810200041417F00040201020440E4
:1040500040404040000102040020545454787F48FE
:104060004444383844444420384444487F38545405
:104070005418087E0901020C5252523E7F08040473
:104080007800447D40002040443D007F10284400DB
:1040900000417F40007C041804787C0804047838D0
:1040A000444444387C14141408081414187C7C0804
:1040B0000404084854545420043F4440203C4040E9
:1040C000207C1C2040201C3C4030403C44281028D0
:1040D000440C5050503C4464544C44000836410059
:1040E00000007F00000041360800080408100800A6
:1040F00000000000010202030405060708090A0B7C
:104100000C0D0E0F101020212121204F5645524832
:104110004541542021212100205374617475733A64
:104120002044525920212121002048756D203A2039
:10413000256420252500205374617475733A204F3F
:104140004B20284D656E753A302900204D757465F9
:104150002062757A7A65723A41284D656E753A30FB
:104160002900205374617475733A204452592028F1
:104170004D5554454429002054656D703A202564FE
:1041800020430020444854204552524F52002044BE
:10419000485431312053454E534F5200204D454E27
:1041A000550020313A44485431312053656E736FC5
:1041B000720020323A556C747261736F6E696320BD
:1041C00053656E736F720020333A536F696C204DE4
:1041D0006F6973747572652053656E736F7200201A
:1041E000303A4D656E75000008420008000000205E
:1041F00010000000500100081842000810000020C4
:10420000F00B000070010008010000001000000029
:0842100000127A00FFFFFFFF1E
:04000005080000ED02
:00000001FF
